:100000000C9409020C944D020C944D020C944D0278
:100010000C944D020C944D020C944D020C944D0224
:100020000C944D020C944D020C94B2200C9484213B
:100030000C947B160C944D020C944D020C944D02C2
:100040000C944D020C944D020C944D020C944D02F4
:100050000C944D020C94E2160C944D020C944D023B
:100060000C944D020C944D020C944D020C944D02D4
:100070000C944D020C944D020C944D020C944D02C4
:100080000C944D020C944D020C944D020C944D02B4
:100090000C944D020C944D020C944D020C944D02A4
:1000A0000C944D020C944D020C944D028E0394035B
:1000B00098039B039F03A303A703AB03B003B403FD
:1000C000B803BC03BF03C303C703CB03CF03D403ED
:1000D000D90CD90C130D130D520D740D060F060F0C
:1000E000B60D060F5D0E5D0ED40EDB0E060F010F72
:1000F0006A0E6A0E6A0E6A0E6A0E6A0E6A0E6A0E40
:100100006A0E6A0E6A0E6A0E6A0E6A0E6A0E6A0E2F
:100110007C0E8C0E930E9A0EA40E9A0F9A0FAD0FB2
:10012000AD0FA30FAD0FAD0FAD0F9A0F9A0FA90F23
:10013000AD0FAD0FA90FE9211022FE221022FE22E1
:1001400058227B22FE22D122E02229001E001F001D
:100150002000210022002300240025002600270083
:100160002D002E002A0035002B0014001A00080074
:10017000150017001C0018000C00120013002F00BF
:10018000300031004C00E300040016000700005767
:100190000A000B0001570E000F003300340000006E
:1001A00028004B00E10000001D001B0006001900A4
:1001B0000500110010003600370002572A005200D7
:1001C0004E000151E000E200000000002C000000A1
:1001D00000000000E6000151E400500051004F0013
:1001E00001003A003B003C003D003E003F00400063
:1001F000410042004300440045004C00490001001A
:100200000100520001000100010001000100010095
:100210000100010001000100010001000100500087
:1002200051004F0001000100010001000100AA007F
:10023000A900A800000001004A0001000000010020
:100240000100BF5CC15CC05C010001000100010055
:100250003100E50001004D00010001000100000037
:1002600000002A0000000000000001000100010061
:10027000BC00AE00BB000E0354004100440041002E
:100280003600380000000A035400410044004100D9
:1002900000000403090409026D00040100A0FA092A
:1002A00004000001030101000921110100012240A5
:1002B000000705810308000A090401000103010287
:1002C00000092111010001224D00070582030800E9
:1002D0000A090402000103000000092111010001C4
:1002E0002236000705830308000A090403000103FE
:1002F00000000009211101000122390007058403D3
:100300002000011201100100000008EDFE606003F2
:10031000000102000105010906A101050719E029F4
:10032000E7150025019508750181020508190129C5
:100330000595057501910295017503910105071950
:100340000029F71500250195F875018102C0050106
:100350000980A10185021601002603001A81002AE6
:100360008300751095018100C0050C0901A101856C
:1003700003160100269C021A01002A9C02751095A2
:10038000018100C005010902A1010901A1000509BF
:1003900019012905150025019505750181029501B1
:1003A000750381010501093009311581257F950209
:1003B0007508810609381581257F95017508810624
:1003C000050C0A38021581257F950175088106C044
:1003D000C005010906A101050719E029E715002557
:1003E00001950875018102950175088101050819BB
:1003F0000129059505750191029501750391010586
:1004000007190029FF150026FF00950675088100D1
:10041000C00011241FBECFEFDAE0DEBFCDBF04B6AF
:1004200003FE24C08091760290917702A091780219
:10043000B09179028730904BA740B04BB9F410923D
:10044000760210927702109278021092790214BE0E
:1004500084B7877F84BF88E10FB6F89480936000EB
:10046000109260000FBEE0E0F8E3099511E0A0E013
:10047000B1E0E4E3F7E402C005900D92AC38B107B7
:10048000D9F712E0ACE8B1E001C01D92A637B10780
:10049000E1F70E94E61D0C9498230C9400000C9444
:1004A0008507229A08950E9484070C94510281FFC7
:1004B00002C02A9801C02A9A0C94A8040F931F9393
:1004C000CF93DF938C01EB019A9581159F4138F50D
:1004D00010FF03C080EEFB01099511FF03C081EE00
:1004E000FE01099512FF03C082EEFE01099513FF7C
:1004F00003C083EEFE0109950115104180F084EEE2
:10050000FE01099585EEFE01099586EEFE0109952D
:1005100087EEFE01DF91CF911F910F910994DF913A
:10052000CF911F910F910895877091E001C0990FAD
:100530008A95EAF7892F0E943A150C94F414877073
:1005400091E001C0990F8A95EAF7892F0E943A1528
:100550000C94F414877091E001C0990F8A95EAF722
:10056000892F0E9440150C94F414877091E001C00B
:10057000990F8A95EAF7892F0E9440150C94F4147C
:10058000CF93DF93EC01805E9109089710F02097DC
:1005900019F46FE972E002C064E972E0CE010E94D2
:1005A0005E028C2FDF91CF910C94190BCF93DF93C8
:1005B000EC010E94280CCE01805E9109089710F092
:1005C000209719F465EB72E002C06AEA72E0CE018E
:1005D000DF91CF910C945E0281E0089581E008954F
:1005E0000C94EE020E94880F2FEF84E39CE02150D0
:1005F00080409040E1F700C000000C9408170F9372
:100600001F93CF93DF938C01FC01C081D181CE0178
:100610000E947414BE010E94AF04EC01B8010E9454
:10062000F002882309F449C1B801CE010E94F40800
:10063000882309F442C1B801CE010E9438078823FB
:1006400009F43BC1C531FCE5DF0781F50E942715A0
:10065000382FF80122818091460190914701222391
:1006600071F03A7A21E009F420E020938C012223F2
:1006700011F065E301C069E20E940E1609C02091E5
:100680008C01222311F065E301C069E20E94191672
:100690000E94F41481E08093910180939201C8013B
:1006A000DF91CF911F910F910C94EC02C6318CE534
:1006B000D80708F097C0C130ECE5DE0759F4F8011F
:1006C0008281882309F4F9C080913002816080938F
:1006D0003002F3C0C230FCE5DF0708F477C0F80150
:1006E00082818823E1F20E948215811102C00E945A
:1006F00063150E94951590E09093670280936602BF
:10070000FE01E350FC45E231F10520F4EA5AFF4FC7
:100710000C94482380916602816003C08091660238
:100720008260809366024BC0809166028460F9CF3C
:100730008091660213C0809166028061F2CF809141
:1007400066028062EECF809166028064EACF80917B
:1007500066028068E6CF8091660284608860E1CF9F
:10076000809166028E7FDDCF809166028D7FD9CF2A
:10077000809166028B7FD5CF8091660213C08091F5
:1007800066028F7ECECF809166028F7DCACF809128
:1007900066028F7BC6CF809166028F77C2CF809131
:1007A00066028B7F877FBDCF9091660297FB88277B
:1007B00080F921E0822780FB97F99093660280916F
:1007C00066020E9499150E94880F77C0C115DC450A
:1007D00009F060CFF8018281882309F46EC00E947D
:1007E000F2026BC0C43DECE5DE0739F5F801828109
:1007F000882361F0109292010E94AD1690939001AF
:1008000080938F0180E20E94890C57C080919201F1
:1008100081110FC080918F01909190010E94B916B3
:10082000883C910530F487E20E94190B87E20E9410
:10083000280C80E20E94900C40C0C53DFCE5DF071B
:1008400038F5C33DDC4509F025CFF80182818823C6
:1008500051F0109291010E94AD1690938E018093F9
:100860008D0182E0D0CF8091910181110FC08091E4
:100870008D0190918E010E94B916883C910530F44B
:1008800086E20E94190B86E20E94280C82E0D2CFF9
:10089000C73DECE5DE0731F4F8018281882369F079
:1008A00080E009C0C83DDC4509F0F4CEF801828142
:1008B000882319F082E00E94781E80E0DF91CF91BA
:1008C0001F910F9108950E948E090C944F02269A51
:1008D0002E988FEF9FEF909387008093860082E29F
:1008E0008093800089E1809381000C94701B0E94AA
:1008F00067040C94530281110AC0809180008F7D9F
:100900008093800010928B0010928A0008958430AA
:1009100041F4809180008062809380008FEF9FEF90
:1009200012C09091800090629093800024E030E0AB
:10093000281B3109220F331F8FEF9FEF02C09695BE
:1009400087952A95E2F790938B0080938A0008950B
:1009500008950C94570280E090E0089508959FE078
:10096000799FF00111249BE4899FE00DF11D112472
:10097000E60FF11DEE0FFF1FE65BFE4F8591949190
:100980000895880F991F8A589D4FFC018591949175
:100990000895CF93DF930E94AF040E948E06EC016E
:1009A000811521E5920708F044C0C11580E5D807FC
:1009B00008F01FC1C83ED10510F5C03ED10508F0B2
:1009C000A9C1C83AD10578F4C53AD10508F09CC050
:1009D000C130D10509F49EC108F455C1C430D10518
:1009E00008F098C150C1CD3BD10508F498C0C03C77
:1009F000D10508F448C1CE01805C9109E9C0C11558
:100A000020E3D20780F4C11580E2D80708F0DEC0E9
:100A1000C03FD10508F437C1CF3FD10511F008F030
:100A200079C1D06577C1C11520E4D20708F0DEC0D6
:100A3000D3C0C11586E5D80768F5C11525E5D207ED
:100A400008F00DC1C11583E5D80750F4C11522E5A2
:100A5000D20708F0EAC0DC2FCC27C16FD06A5AC198
:100A6000C11584E5D80708F0F5C08C2F86958695CA
:100A700020E2829FC00111249E0123703327C1E030
:100A8000D0E002C0CC0FDD1F2A95E2F7C82BD92B8E
:100A9000DA6840C1CF3B2CE5D20709F4EBC098F4EB
:100AA000C11528E5D20708F4EEC0C11589E5D807BD
:100AB00008F4DBC0CF3A2CE5D20708F4E4C0CF5AE3
:100AC000DC45D46D27C1C23C8CE5D80709F4D8C0F9
:100AD00060F4C03C8CE5D80709F4CFC0C13CDC45CC
:100AE00009F0D1C0C0E0D2ED15C1CE0190568115FC
:100AF000904208F0C8C08D2F8F710E940A07DD2731
:100B0000D0628F71D82B06C1C53AD10509F4BEC099
:100B1000C63AD10509F4BDC0C3E8D0E4FBC0C83A69
:100B2000D10509F4B9C0C93AD10509F4B8C0CA3A27
:100B3000D10509F4B7C0CB3AD10509F4B6C0CC3A17
:100B4000D10509F4B5C0CB3BD10509F4B4C0CC3B09
:100B5000D10509F4B3C0CD3AD10509F4B2C0C03B08
:100B6000D10509F4B1C0CE3AD10509F4B0C0CF3AED
:100B7000D10509F4AFC0C13BD10509F4AEC0C23BF9
:100B8000D10509F4ADC0C33BD10509F4ACC0C43BE9
:100B9000D10509F4ABC0C53BD10509F4AAC0C63BD9
:100BA000D10509F4A9C0C73BD10509F4A8C0C83BC9
:100BB000D10509F4A7C0C93BD10509F4A6C0CA3BB9
:100BC000D10509F0A5C0CAE2D6E4A4C0CE019F7049
:100BD0000E94C104EC019EC0CE019927D3FF03C03F
:100BE000EC01D86C97C0EC01D06C94C0DF70D06A77
:100BF00091C02C2F237081E090E002C0880F991FD4
:100C00002A95E2F79C689E0174E0369527957A95BF
:100C1000E1F72370922BCF70C695C69520E2C29F54
:100C2000E0011124C82BD92B75C08C2F8695869591
:100C300020E2829FC00111249E0123703327C1E06E
:100C4000D0E002C0CC0FDD1F2A95E2F7C82BD92BCC
:100C5000DC6860C0DC2FCC27C46FD06A5BC0CF716A
:100C6000DD27DC2FCC27D06255C0DC2FCC27C06F0E
:100C7000D06A50C0C0E0D1ED4DC0C0E0D0ED4AC058
:100C8000C0E0D3ED47C0C0E0D0E044C0C1E8D0E44C
:100C900041C0C2E8D0E43EC0C2EED4E43BC0C9EEDD
:100CA000D4E438C0CAEED4E435C0C5EBD4E432C0D5
:100CB000C6EBD4E42FC0C3EBD4E42CC0C4EBD4E423
:100CC00029C0C7EBD4E426C0CCECD4E423C0CDECDF
:100CD000D4E420C0C3E8D5E41DC0CAE8D5E41AC0F6
:100CE000C2E9D5E417C0C4E9D5E414C0C1E2D6E432
:100CF00011C0C3E2D6E40EC0C4E2D6E40BC0C5E224
:100D0000D6E408C0C6E2D6E405C0C7E2D6E402C015
:100D1000C0E0D4E4CE01DF91CF91089582389105EF
:100D200049F1B0F48133910509F459C048F489328E
:100D3000910509F44FC08A32910509F455C0089510
:100D40008533910509F441C08933910599F00895DF
:100D5000833E910531F138F4803E910591F0823E59
:100D60009105A9F00895863E910501F1873E910510
:100D700039F108952091660220FD3BC021FD39C064
:100D800008958091660280FF34C089E341C080915C
:100D9000660282FF32C08091660284FF2CC080E030
:100DA00037C08091660282FD28C0F5CF809166022F
:100DB00083FF25C08091660284FDF1CF87EE28C0B5
:100DC0008091660283FD1BC0F5CF8091660285FF8E
:100DD00018C019C08091660285FF15C012C08091AD
:100DE000660286FF12C013C08091660286FF0FC0A4
:100DF0000CC080EE0DC083EE0BC082EE09C086EE03
:100E000007C085E305C089E203C081E301C08AE22F
:100E100090E00895CF93C82F0E949515282F30E0B9
:100E2000309367022093660282FF0DC08C2F887179
:100E3000883019F4C77FC46006C08C2F8471843059
:100E400011F4CB7FC86023FF0DC08C2F88718831CF
:100E500019F4C77EC46106C08C2F8471843111F4EB
:100E6000CB7EC86124FDC77E8C2FCF910895089555
:100E7000CF93DF93EC01FB018281811102C081E0FD
:100E800040C08091A001811125C0C631DC45B9F771
:100E90000E94370781E08093A0010E94AD169093D5
:100EA0009F0180939E0110929301109295011092E0
:100EB000940110929701109296011092990110924C
:100EC000980110929B0110929A0110929D0110922C
:100ED0009C0116C080919E0190919F010E94B916BD
:100EE000883C910560F680919301E82FF0E0EE0FC9
:100EF000FF1FEC56FE4FD183C0838F5F8093930119
:100F000080E0DF91CF9108950895089585B78068B6
:100F100085BF85B7806885BFA8E6B1E021E030E0F5
:100F20008D91E82FE295EF70F0E041A18F70B9014B
:100F300002C0660F771F8A95E2F7CB01962F909536
:100F4000492341A392A1982B92A371E0AD36B70734
:100F500039F7A9E5B1E021E030E08D91E82FE29585
:100F6000EF70F0E041A18F70B90102C0660F771FEA
:100F70008A95E2F7CB01962F9095492341A392A140
:100F8000982B92A371E0A836B70739F7EBEAF1E0A6
:100F9000A1EAB1E0119211921D921D9281E0E53B10
:100FA000F807C1F70C9477044F925F927F928F926B
:100FB0009F92AF92BF92CF92DF92EF92FF920F93E8
:100FC0001F93CF93DF9308E611E0C1EAD1E0EE244E
:100FD000E394F12C99249394BE01A880B9801982DE
:100FE0001882D8012D918D01E22FE295EF70F0E08B
:100FF00081A12F70A70102C0440F551F2A95E2F767
:101000009A01842B81A382A1842E8094882182A3BB
:1010100050EA5A95F1F749E5442E41E0542E80E01C
:1010200090E0D2014D912D01C42EC2943FE0C32225
:10103000D12CD60190967C90C880D9804F70D70172
:1010400002C0AA0FBB1F4A95E2F77A2241F4A7011A
:10105000082E02C0440F551F0A94E2F702C040E078
:1010600050E04C295D295983488301968F309105C2
:10107000C1F681A1882181A382A1822B82A322961D
:10108000FB0180819181A816B90641F09092B501CB
:101090000E94AD169093B7018093B601F1E00D3632
:1010A0001F0709F099CF8091B5018823B1F0809195
:1010B000B6019091B7010E94B916069770F0E1EA67
:1010C000F1E0ABEAB1E0819191918D939D9341E084
:1010D000EB3AF407C1F71092B5010E94630481E076
:1010E000DF91CF911F910F91FF90EF90DF90CF9004
:1010F000BF90AF909F908F907F905F904F9008959A
:10110000E82FF0E0EE0FFF1FE555FE4F8081918143
:1011100008950895CF93DF93EC018E85811112C05D
:1011200081E08E878F810E942A150E94F414EA8143
:10113000FB8169897A89CE010696309719F0DF9193
:10114000CF910994DF91CF910895FC018081813086
:1011500021F4FB018081918105C0823029F4FB01DB
:10116000828193810C94C0020895FC0180818130BA
:1011700021F4FB018081918105C0823029F4FB01BB
:10118000828193810C94D60208950F931F93CF937D
:10119000DF938C01FC018781811121C082819381C1
:1011A000975523E1289FE001299FD00D1124C050BD
:1011B000DF4FEC81FD8169897A89CE0106963097EF
:1011C00009F009958F810E9430150E94F414F801EE
:1011D0001082168210861092B9011092B801DF9128
:1011E000CF911F910F910895FF920F931F93CF936B
:1011F000DF938C018091B8019091B901009771F053
:101200008017910759F0975523E1289FF001299FF6
:10121000F00D1124E050FF4F81E08487C8019755FD
:10122000FB0142818F3F910511F008F04DC02091E4
:101230004501332727FD30952817390714F480938B
:10124000450123E1289FE001299FD00D1124C050C2
:10125000DF4F4D87FB018281882309F458C019872D
:1012600008878E818F5F8E830E94AD169B878A8749
:101270000E9460158F83E881F98169897A89CE019E
:101280000696309709F009958091B8019091B901BF
:101290000097A9F08017910791F0975523E1289FB7
:1012A000E001299FD00D1124C050DF4F81E08C87D1
:1012B000CE010E948A08CE0106960E94C5081093AE
:1012C000B9010093B80123C0442309F1809145017D
:1012D0008F3FE9F0C6E0D1E000E010E0FF24F39496
:1012E00080914501992787FD9095801791077CF0A3
:1012F000CE0106972881222331F0FE820E948A08BF
:10130000CE010E94C5080F5F1F4F6396E9CF81E0B1
:10131000DF91CF911F910F91FF900895EF92FF926F
:101320000F931F93CF93DF93809145018F3F71F10E
:10133000F12C83E1E82E8F2D90E020914501332799
:1013400027FD3095281739070CF1E89EE001E99E4A
:10135000D00D1124C050DF4F0F85188901151105DC
:1013600011F408EC10E08E81882371F08A859B854A
:101370000E94B9160817190738F4CE010E948A088E
:10138000CE0106960E94C508F394D5CFDF91CF9188
:101390001F910F91FF90EF9008959093BF0180935C
:1013A000BE010895E091BE01F091BF01309721F098
:1013B0000190F081E02D099480E00895E091BE0154
:1013C000F091BF01309721F00280F381E02D099464
:1013D0000895E091BE01F091BF01309721F00480A3
:1013E000F581E02D099408952091BC013091BD0153
:1013F0008217930771F09093BD018093BC01E09137
:10140000BE01F091BF01309721F00680F781E02DF9
:10141000099408952091BA013091BB018217930776
:1014200071F09093BB018093BA01E091BE01F091FD
:10143000BF01309721F00084F185E02D09940895D3
:1014400008950C94200A81E008950E94A4160E9439
:1014500086070E942B170C94701B5F926F927F92ED
:101460008F929F92AF92BF92CF92DF92EF92FF92B4
:101470000F931F93CF93DF93CDB7DEB72A970FB6A5
:10148000F894DEBF0FBECDBF0E94D4070E94230A8E
:10149000811111C08FEF89838A831B820E94AD1650
:1014A0008160782F9D838C8349815A816B818D81E6
:1014B0000E94EB0A57C091ECC92E91E0D92E00E0B2
:1014C00010E0AA24A394B12C502E802F0E948008F3
:1014D0003C01F601E190F1906F01E826F926E11454
:1014E000F10431F40F5F1F4F0530110569F7D2CFBA
:1014F0008091300281FD0E94890820E030E04501A2
:10150000022E02C0880C991C0A94E2F7C4018E21B5
:101510009F21892B09F12E835F826820792081E049
:10152000672809F480E088870E94AD168160782FD3
:101530009A8789874E815F8168858A850E94EB0A38
:10154000F801EE0FFF1FEF53FE4F80819181882538
:1015500099259183808306C02F5F3F4F2F3031053F
:1015600071F6C0CF0E94BD181091C0010E94D2092F
:101570001817D9F00E94D2098093C0012A960FB69D
:10158000F894DEBF0FBECDBFDF91CF911F910F91B9
:10159000FF90EF90DF90CF90BF90AF909F908F9093
:1015A0007F906F905F900C94A9042A960FB6F894E0
:1015B000DEBF0FBECDBFDF91CF911F910F91FF9086
:1015C000EF90DF90CF90BF90AF909F908F907F90E3
:1015D0006F905F900895CF93DF93CDB7DEB72B97D1
:1015E0000FB6F894DEBF0FBECDBF4F835887698713
:1015F0007A878B87DE01119686E0FD0111928A952C
:10160000E9F785E0FE01379601900D928A95E1F7A2
:1016100049815A816B817C818D819E810E94521209
:101620002B960FB6F894DEBF0FBECDBFDF91CF91E2
:101630000895CF93DF931F92CDB7DEB7682F88232D
:1016400009F402C18238C1F40E94D20981FDFCC0B4
:1016500069E380914601909147010E940E160E9415
:10166000F4142FEF81EE94E0215080409040E1F798
:1016700000C0000069E319C0833811F50E94D20947
:1016800080FDE2C063E580914601909147010E9490
:101690000E160E94F414EFEFF1EE24E0E150F0405A
:1016A0002040E1F700C0000063E580914601909181
:1016B00047010E9419160F90DF91CF910C94F414FA
:1016C0008438C1F40E94D20982FDBEC067E48091D3
:1016D0004601909147010E940E160E94F4148FEF6C
:1016E00091EEE4E081509040E040E1F700C000005E
:1016F00067E4DBCF8CEF860F813A70F4862F698325
:101700000E94DC1A698181119FC0809146019091ED
:1017100047010E940E16CFCF80E2860F883048F432
:10172000677081E001C0880F6A95EAF70E942A1568
:10173000C2CF8BE5860F833088F4653A29F0663A8C
:1017400031F482E890E005C081E890E002C083E8CF
:1017500090E00F90DF91CF910C94F40988E5860F0B
:10176000853108F071C0683A61F1693A69F16A3A05
:1017700071F16B3A79F16C3A81F16B3B89F16C3B19
:1017800091F16D3A99F1603BA1F16E3AA9F16F3A8E
:10179000B1F1613BB9F1623BC1F1633BC9F1643B1B
:1017A000D1F1653BD9F1663BE1F1673BE9F1683B7B
:1017B000F1F1693BF9F16A3B09F03FC08AE292E03E
:1017C0003EC082EE90E03BC089EE90E038C08AEEE9
:1017D00090E035C085EB90E032C086EB90E02FC002
:1017E00083EB90E02CC084EB90E029C087EB90E085
:1017F00026C08CEC90E023C08DEC90E020C083E804
:1018000091E01DC08AE891E01AC082E991E017C01A
:1018100084E991E014C081E292E011C083E292E099
:101820000EC084E292E00BC085E292E008C086E23E
:1018300092E005C087E292E002C080E090E00F9065
:10184000DF91CF910C940A0A0F90DF91CF91089508
:10185000882309F45DC0823879F40E94D20981FF9F
:1018600057C069E380914601909147010E940E168E
:101870000E94F41469E310C08338B1F40E94D209C5
:1018800080FF46C063E580914601909147010E9428
:101890000E160E94F41463E5809146019091470171
:1018A0000E9419160C94F414843879F40E94D20919
:1018B00082FF2EC067E480914601909147010E940B
:1018C0000E160E94F41467E4E7CF9CEF980F913A4C
:1018D00010F4682FE1CF90E2980F983050F48770A1
:1018E00091E001C0990F8A95EAF7892F0E9430157F
:1018F000D9CF9BE5980F933020F480E090E00C94D2
:10190000F409885A853120F480E090E00C940A0AAA
:101910000895882321F00E942A150C94F414089548
:10192000882321F00E9430150C94F41408958F92AE
:101930009F92BF92CF92DF92EF92FF920F931F93ED
:10194000CF93DF9300D0CDB7DEB74C01472FFC011A
:10195000C580C2949FE0C922D280DD2031F0798316
:101960006A830E9447156A81498149836A830E947C
:10197000ED1449816A81882389F0DD2079F080E2C5
:10198000860F883058F082E00E94D6140E94ED1431
:10199000BB24B394B82649816A8101C0B12CE42EDE
:1019A000E2948FE0E822F12CF701E859FF4F0C9404
:1019B0004823842F807F142F1F70882311F01295E5
:1019C000107FDD20C1F0112309F4D9C180E2860F18
:1019D000883010F0611105C0812F6A830E942A159A
:1019E00004C0812F6A830E943A156A816A830E942B
:1019F000F4146A81C4C1862F6A830E94280C6A810C
:101A0000112309F403C280E2860F883010F06111BF
:101A100004C0812F0E94301503C0812F0E94401501
:101A20000E94F414F3C1242F207F842F8F70203262
:101A300011F08295807F662319F06130B9F022C0E1
:101A4000DD2049F0CC2009F44EC1F1E0CF124BC1AA
:101A50000E945A15DBC1CC2021F021E0C21609F406
:101A6000D5C189830E945D15898143C1DD2029F09C
:101A700095E09C1508F4CAC136C1E4E0EC1508F401
:101A8000C5C137C1DD2051F0CC2009F42CC1F401CF
:101A9000958190FF74C19F70958325C1CC2009F476
:101AA00028C17EC1242F26952695237030E021156C
:101AB000310521F02130310561F0A8C1DD2021F090
:101AC000862F942F937002C080E090E00E94F4096A
:101AD000ADC1DD2021F0862F942F937002C080E0ED
:101AE00090E00E940A0AA2C1DD20F9F0653F51F0A2
:101AF000663F71F0643FA9F48091600290916102A9
:101B000081600BC08091600290916102826005C08B
:101B10008091600290916102846090936102809351
:101B20006002862F0E94C5171EC0653F51F0663FB8
:101B300071F0643FA9F480916002909161028E7F00
:101B40000BC080916002909161028D7F05C08091F1
:101B50006002909161028B7F90936102809360029A
:101B6000862F0E942D180E94B21860C1842F8370A6
:101B700009F04EC0D11056C1262F22952695277008
:101B8000220F220F862F8F70C82ED12CE12CF12C22
:101B9000022E04C0CC0CDD1CEE1CFF1C0A94D2F7F4
:101BA00064FF10C06FE070E080E090E004C0660F5A
:101BB000771F881F991F2A95D2F760957095809599
:101BC000909503C060E070E0CB01242F2695269508
:101BD000237030E02230310569F02330310589F07F
:101BE0006C297D298E299F292130310571F00E94B1
:101BF000A31318C16C297D298E299F290E94B51332
:101C000011C10E94A313C701B6010E9491130AC11A
:101C1000DD2019F0842F817001C08695882309F496
:101C200001C1262F229526952770220F220F862F7D
:101C30008F70C82ED12CE12CF12C022E04C0CC0CBC
:101C4000DD1CEE1CFF1C0A94D2F764FF10C06FE08D
:101C500070E080E090E004C0660F771F881F991F36
:101C60002A95D2F7609570958095909503C060E0B5
:101C700070E0CB01242F26952695237030E022308A
:101C8000310569F02330310589F06C297D298E29D1
:101C90009F292130310571F00E944F14C3C06C2977
:101CA0007D298E299F290E946114BCC00E944F1477
:101CB000C701B6010E943D14B5C0062F10E0F8011F
:101CC000E05EF109E531F10508F055C0E858FF4F35
:101CD0000C944823162F1F70842F8F71DD2031F054
:101CE0000E94E813812F0E94890C90C00E94031467
:101CF000812F0E94900C8AC0DD2049F0F4E0FC1591
:101D000008F484C0842F8F710E9422147FC025E0C4
:101D10002C1508F47BC0F6CFDD2039F0842F8F71AD
:101D20000E94E81373C0DD20C9F3842F8F710E94D5
:101D300003146CC0DD2029F0842F8F710E94D91309
:101D400065C00E94D41362C0DD2051F0142F1F71B2
:101D5000812F0E94E81363E0812F0E94CD1456C0AA
:101D600081E00E94D61481E08C1508F04FC082E01B
:101D70000E94D6144BC0DD2031F0CC2079F2862FA2
:101D80000E94190B43C0CC2081F2693349F49FEFC4
:101D9000E7EEF3E09150E040F040E1F700C00000D2
:101DA000862F0E94280C32C04F70C4010E94AB04E1
:101DB0000E94FF123BC0D11039C0942F9F70292F71
:101DC00030E022303105B9F04CF42115310581F0B5
:101DD00021303105D9F40E94A91B28C023303105D8
:101DE00069F02430310591F4862F0E94FD1B1EC03E
:101DF0000E948D1B1BC00E94C51B18C00E94D81BCF
:101E000015C04F70C4010E94AE0410C028E0E21655
:101E1000F10441F05CF09AE0E91AF108E2E0EE1614
:101E2000F10420F40E94D2090E94A904BB20F1F021
:101E30000E94C91480FD1AC0F40112820E94C314CA
:101E40000E94E813C4010E94440F0E94C3140F9023
:101E50000F90DF91CF911F910F91FF90EF90DF9046
:101E6000CF90BF909F908F900C9403140F900F9081
:101E7000DF91CF911F910F91FF90EF90DF90CF9066
:101E8000BF909F908F9008950F931F93CF93DF93F0
:101E9000EC01288139818B819C81892B31F03F3F76
:101EA00011F080E003C02F3FE1F781E0811113C002
:101EB000CE010E94FF02882371F0688179818A81B6
:101EC0000E94BF148C010E9473140E948E13B801EB
:101ED000CE010E94970CDF91CF911F910F91089531
:101EE0000E9447150E945715809146019091470125
:101EF0000E9424160E94F4140E9446190E94B218EF
:101F000080E090E00E94F40980E090E00C940A0ADE
:101F10000E9437150C94700F0E94B414E92FE295BB
:101F2000EF70F0E03297EE30F105B8F4E357FF4F71
:101F30000C944823803F59F018F4803E70F407C099
:101F4000843F59F404C0803E10F0813F31F481E0B9
:101F5000089593FB882780F9089580E00895CF9332
:101F6000DF9300D000D01F92CDB7DEB70F900F9057
:101F70000F900F900F90DF91CF910895CF93DF9343
:101F800000D000D000D0CDB7DEB726960FB6F894BB
:101F9000DEBF0FBECDBFDF91CF9108951F93CF93CA
:101FA000DF93C091CB0116E08091CC01C81799F066
:101FB000D0E01C9FF0011D9FF00D1124E353FE4F54
:101FC0004081518162817381848195810E94BE0F1D
:101FD0002196C770E9CFDF91CF911F91089540916D
:101FE000FD015091FE016091FF017091000280910E
:101FF0000102909102020C94BE0FCF9380910202D5
:1020000082958F7009F05FC08091FF01882309F4E9
:102010005AC02091CB01A091CC016091FD0170913B
:10202000FE01809100029091010231E06F3F09F0C2
:1020300030E0B32FC6E02A1709F445C0009721F01D
:102040007F3F21F44B2F03C041E001C040E030E06E
:1020500040FD35C0C29FF001C39FF00D1124E35332
:10206000FE4F418174132BC04081641328C042810C
:10207000411125C0438154814817590710F441503C
:102080005109481B590B483C5105C8F48091020284
:102090008F7080618093020286E0829FF001839FAF
:1020A000F00D1124EE52FE4F80818F70806180838D
:1020B0008DEF91E00E94440FCF910C94CE0F2F5FD3
:1020C0003F4F2770B8CFCF910895CF92DF92EF9214
:1020D000FF920F931F93CF93DF93CDB7DEB7629735
:1020E0000FB6F894DEBF0FBECDBF8C0185E0F801BE
:1020F000DE011D9601900D928A95E1F7D8014C9171
:1021000011965C91119712966C9112971396ED901F
:10211000FC9014977091FD01E091FE012091000266
:10212000309101022115310531F0EF3F31F481E0AA
:102130007F3F19F403C081E001C080E0B82FB17087
:10214000CB2E80FD6CC1D090FF01DD2009F4F5C0DD
:10215000F0910202E216F30638F0C701821B930BDE
:10216000883C910548F09BC0209530952E0D3F1D71
:10217000283C310508F093C08F2F807F09F052C0B2
:10218000E51314C0741312C0D62E61110FC0FF7076
:10219000F061F09302020E94EF0F8DEF91E00E9438
:1021A000440F80910202F80185836CC1EF2831F061
:1021B0005F3F31F481E04F3F19F403C081E001C07B
:1021C00080E080FD03C081E0862701C080E0F82F19
:1021D000F170FF2E80FF1CC08091CB012091CC01BB
:1021E00036E0821709F428C190E0389FF001399F4A
:1021F000F00D1124E353FE4F7181571306C0708117
:10220000471303C07281671303C001968770E9CF3B
:10221000D62E662309F436C1809102028160809334
:10222000020253C0E51308C0741306C0611104C054
:10223000D8011596FC93AEC04D875E878D859E852F
:102240006A8B0E948C0F6A89882329F1D62E662317
:1022500011F120910202822F82958F7090E00297F7
:102260000CF460C08091FD019091FE0198878F83EE
:102270001986FB86EA862C87CE01079651C0E517A2
:1022800031F14D875E878D859E856A8B0E948C0F0C
:102290006A8981112EC0C8010E94440FA4C08F2FEB
:1022A000807F69F77E2DF98AE88A89890E94AF0FBD
:1022B0008DEF91E00E94440FEDEFF1E086E0DF0149
:1022C0001D928A95E9F70E94EF0FD12CDBC07413A1
:1022D000D8CF6111D6CFD8011596FC93C8010E94C2
:1022E000440FEDEFF1E086E0DF011D928A95E9F7FA
:1022F000C9C0D62E662379F220910202822F8295E0
:102300008F7090E0029774F08091FD019091FE0132
:102310009A8389831B82FD82EC822E83CE010196F3
:102320000E94440F86E0F801ADEFB1E001900D92FC
:102330008A95E1F70E94FD0F6FC0E216F30628F0C0
:10234000C701821B930B9C0104C0209530952E0D74
:102350003F1D283C310508F052C0D62E662309F4F3
:102360009ACFE5132CC074132AC08091020280FD1D
:102370001DC0982F92959F70C9F0D80115968C9327
:1023800015979F3039F09F5F9295907F8F70892BC2
:1023900015968C93C8010E94440F86E0F801ADEFBA
:1023A000B1E001900D928A95E1F736C086E0F80120
:1023B000ADEFB1E001900D928A95E1F763C04D87D2
:1023C0005E878D859E850E948C0F882379F086E03C
:1023D000F801ADEFB1E001900D928A95E1F70E940E
:1023E000FD0F0E94EF0FDD24D3944CC080910202B8
:1023F000816080930202C8010E94440F43C07E2D79
:10240000F98AE88A89890E94AF0FEDEFF1E086E052
:10241000DF011D928A95E9F70E94EF0F33C0662312
:1024200009F439CF4D875E878D859E850E948C0F7C
:10243000882309F430CFCBCF4D875E878D859E856D
:102440000E94B414292F22952F7030E022303105DC
:102450002CF49F7041F0811106C00CC0243031056E
:102460002CF49F7049F4805E883020F0C8010E94EF
:10247000440FCF2CDC2C06C0D80115969C91907F80
:1024800091F7F8CF8D2D62960FB6F894DEBF0FBE90
:10249000CDBFDF91CF911F910F91FF90EF90DF9013
:1024A000CF9008951F93CF93DF93CDB7DEB72C97CE
:1024B0000FB6F894DEBF0FBECDBF4F835887698734
:1024C0007A878B879C87CE0107960E9465108823A8
:1024D000C1F02F8138858A859B85892B31F03F3F5C
:1024E00011F080E003C02F3FE1F781E0811147C088
:1024F0004F81588569857A858B859C850E94BE0FA2
:102500003EC086E0FE013796DE01119601900D92E5
:102510008A95E1F7FF81E8854A855B85411551057C
:1025200031F0EF3F31F481E0FF3F19F403C081E067
:1025300001C080E080FD23C02091CC0130E0C901C2
:102540000196877099276091CB0170E086179707F5
:10255000F1F1F983EA835D834C8396E0929FD00189
:10256000939FB00D1124A353BE4FFE0131960190ED
:102570000D929A95E1F78093CC010E94CE0F16E060
:102580008091CB019091CC01891779F1189FC001FE
:10259000112483539E4F0E946510882331F1E091EE
:1025A000CB011E9FF0011124E353FE4F4081518166
:1025B00062817381848195810E94BE0F8091CB01DD
:1025C00090E00196877099278093CB01D9CF0E9424
:1025D000880F1092CC011092CB01EDEFF1E086E074
:1025E000DF011D928A95E9F7CACF2C960FB6F894B1
:1025F000DEBF0FBECDBFDF91CF911F910895EF9247
:10260000FF920F931F93CF93DF939C01009709F4E0
:1026100071C0F12CEE24E394E9012196F901849133
:10262000843740F4843008F056C0813081F0823025
:1026300021F160C0853709F449C0C0F19CE7980FCB
:10264000903708F057C08F770E94280C46C0890148
:102650000E5F1F4FFE01849190E2980F983050F466
:102660008770FE2D01C0FF0F8A95EAF78F2F0E9419
:102670004A1515C00E94190B14C089010E5F1F4F27
:10268000FE01849190E2980F983068F48770FE2DD7
:1026900001C0FF0F8A95EAF78F2F0E9450150E9404
:1026A000F414E8011AC00E94280CFBCF2E5F3F4FA4
:1026B000FE01C491CC2341F08FE99FE00197F1F72F
:1026C00000C00000C150F6CFE90107C0FE01F49040
:1026D000E901229602C00E94190B8F2D882341F038
:1026E000EFE9FFE03197F1F700C000008150F6CF2D
:1026F0009E0192CFDF91CF911F910F91FF90EF90AC
:10270000089508950E948113609307027093080250
:102710008093090290930A020C94700F08950C9410
:1027200082130F931F9300910702109108022091CA
:10273000090230910A02602B712B822B932B1F917F
:102740000F910C9482130F931F9300910702109125
:1027500008022091090230910A026023712382232A
:1027600093231F910F910C9482130F931F93009149
:102770000702109108022091090230910A02602795
:102780007127822793271F910F910C94821308952C
:102790000E94C713609303027093040280930502A2
:1027A000909306020C94700F60E070E0CB010C94E3
:1027B000C81341E050E060E070E004C0440F551FD2
:1027C000661F771F8A95D2F7CB01BA010C94C81304
:1027D00041E050E060E070E004C0440F551F661F08
:1027E000771F8A95D2F78091030290910402A091FD
:1027F0000502B0910602482B592B6A2B7B2BCB018B
:10280000BA010C94C81341E050E060E070E004C0ED
:10281000440F551F661F771F8A95D2F74095509534
:10282000609570958091030290910402A091050239
:10283000B0910602482359236A237B23CB01BA01B6
:102840000C94C81341E050E060E070E004C0440F15
:10285000551F661F771F8A95D2F7809103029091CA
:102860000402A0910502B0910602482759276A2761
:102870007B27CB01BA010C94C8130F931F930091CF
:102880000302109104022091050230910602602B90
:10289000712B822B932B1F910F910C94C8130F93C4
:1028A0001F930091030210910402209105023091C0
:1028B000060260237123822393231F910F910C94AE
:1028C000C8130F931F9300910302109104022091EB
:1028D00005023091060260277127822793271F91F6
:1028E0000F910C94C8130895CF92DF92EF92FF924C
:1028F0000F931F93CF93DF93EC01C0900702D0900A
:102900000802E0900902F0900A028091030290917F
:102910000402A0910502B0910602C82AD92AEA2A27
:10292000FB2A0FE110E0B701A601002E04C0769546
:102930006795579547950A94D2F740FD05C0015019
:10294000110988F780E007C0BE01802F0E94C904EA
:102950000197A9F3802FDF91CF911F910F91FF90E5
:10296000EF90DF90CF900895CF93DF93EC010E941A
:102970007414BE010E94C904DF91CF910895CB0168
:102980000E94B414089580910B02859585958595D4
:10299000089580910B028770089598E0899F9001B7
:1029A0001124622B60930B020C94E81340910B02EC
:1029B0008095842380930B02982F977069F450E0E0
:1029C000282F332727FD30954217530729F0859587
:1029D000859585950C940314089590910B0297703A
:1029E00081E009F480E00895E0914601F09147010B
:1029F00080912F028083E0914601F0914701808110
:102A000090912E02892B8083E0914601F09147013D
:102A1000808190912D02892B808390910C029923C3
:102A200081F0E0914601F09147018081892B8083FC
:102A300080914601909147010E94A7158111109243
:102A40000C0280914601909147010C94DE0980911F
:102A50002F02089590912F02982B90932F020895A2
:102A6000809590912F02982390932F0208951092B1
:102A70002F02089590912E02982B90932E02089584
:102A8000809590912E02982390932E020895109293
:102A90002E02089590912D02982B90932D02089567
:102AA000809590912D02982390932D020895109275
:102AB0002D02089580930C02089510920C0208953F
:102AC00080910C0208956DEE7EEF80E090E00E9410
:102AD000822360E082E090E00E94702360E083E067
:102AE00090E00E94702360E084E090E00E947023F8
:102AF00060E085E090E00E94702360E086E090E076
:102B00000C94702380E090E00E946A2321E08D3EC7
:102B10009E4F09F020E0822F089582E090E00C940F
:102B2000622383E090E00C94622384E090E00C94B4
:102B30006223682F84E090E00C94702386E090E09C
:102B40000C946223682F86E090E00C94702320E0C0
:102B500030E040E0FC01E20FF31F518151114F5F63
:102B60002F5F3F4F2F313105A9F7842F089520E0C3
:102B700030E04FEFFC01E20FF31F5281561799F03E
:102B80004F3F19F4511101C0422F2F5F3F4F2E319B
:102B9000310581F74F3F39F0FC01E40FF11D47FD8E
:102BA000FA9562830895089520E030E0FC01E20F79
:102BB000F31F4281461301C012822F5F3F4F2E3117
:102BC0003105A1F70895262F2695269526952F31B4
:102BD00070F4FC01E20FF11D677021E030E0062E79
:102BE00001C0220F0A94EAF78181822B8183089524
:102BF000262F2695269526952F3178F4FC01E20F95
:102C0000F11D677021E030E0062E01C0220F0A940A
:102C1000EAF7209581812823218308952091580186
:102C2000222329F02091660227FD0C94E3150C94D1
:102C3000B71520915801222329F02091660227FD23
:102C40000C94F8150C94D41520E030E0FC01E20F50
:102C5000F31F11822F5F3F4F2F313105B9F70895D0
:102C600080916D02843039F11092310220E488E1C4
:102C700090E00FB6F894A895809360000FBE209363
:102C8000600080E00E947B0480E00E94A90483B77A
:102C9000817F846083BF83B7816083BF7894889588
:102CA00083B78E7F83BF88E10FB6F894809360006E
:102CB000109260000FBE089508950895CF930E946A
:102CC0005C160E94D4070E945D16C0E08C2F0E9403
:102CD0008008892B29F4CF5FC530C1F780E001C09F
:102CE00081E0CF9108950E94880F0E94701B0E947E
:102CF000D2090C94A9041F920F920FB60F921124BF
:102D00008F939F93AF93BF9380913102811113C032
:102D10008091620290916302A0916402B091650279
:102D20004196A11DB11D8093620290936302A0930E
:102D30006402B0936502BF91AF919F918F910F9004
:102D40000FBE0F901F90189582E084BD93E095BD53
:102D50009AEF97BD80936E0008952FB7F8948091F5
:102D6000620290916302A0916402B09165022FBF4C
:102D70000895CF92DF92EF92FF920F931F932FB798
:102D8000F8944091620250916302609164027091E4
:102D900065022FBF6A017B01EE24FF248C0120E035
:102DA00030E0C016D106E206F30610F44150510996
:102DB000481B590BCA011F910F91FF90EF90DF90B4
:102DC000CF90089578941F920F920FB60F9211240E
:102DD0008F939F93AF93BF93809162029091630210
:102DE000A0916402B09165020196A11DB11D80936E
:102DF000620290936302A0936402B0936502BF9154
:102E0000AF919F918F910F900FBE0F901F901895CB
:102E10000E943720F8942FEF87EA91E621508040F6
:102E20009040E1F700C0000087E090EBDC01809368
:102E3000760290937702A0937802B09379022CE007
:102E400088E190E00FB6F894A895809360000FBEDB
:102E500020936000FFCF0E948215811102C00E9462
:102E600063150E948D15809330020E94951590E0A5
:102E700090936702809366020E949115682F70E01C
:102E800080E090E00C948F138091340280FF0BC09F
:102E900060914B0185E0689FB0011124759567959D
:102EA000759567952AC081FF09C060914B0185E047
:102EB000689FB0011124759567951FC082FF07C0F8
:102EC00060914B0185E0689FB001112416C04091CC
:102ED00035024423C9F060914A01461788F72091D2
:102EE0004B0185E0289F90011124429FC001439F20
:102EF000900D112470E00E9434236038710540F475
:102F00006115710539F002C065E070E0862F089503
:102F10008FE7089581E008958091340280FF08C012
:102F20006091490170E0759567957595679521C029
:102F300081FF06C06091490170E07595679519C0E1
:102F400082FF04C06091490170E010C08091350299
:102F50008823C1F0609148018617A0F7909149013C
:102F6000989FC001112470E00E94342360387105DD
:102F700028F46115710521F0862F08958FE70895D3
:102F800081E0089561E070E0F4CF803F21F40E9479
:102F90004417819504C0813F29F40E94441780930F
:102FA00038020895823F21F40E944417819504C09D
:102FB000833F29F40E944417809337020895893F84
:102FC00019F40E948C1705C08A3F31F40E948C17B7
:102FD00081958093390208958B3F21F40E948C17CC
:102FE000819504C08C3F29F40E948C1780933A028B
:102FF0000895843F21F480913602816017C0853F97
:1030000021F480913602826011C0863F21F48091C4
:10301000360284600BC0873F21F4809136028860BD
:1030200005C0883F31F4809136028061809336027A
:1030300008958D3F21F48091340281600BC08E3F52
:1030400021F480913402826005C08F3F29F4809181
:1030500034028460809334020895803F39F4809173
:10306000380287FF6CC01092380269C0813F29F492
:10307000809138021816BCF362C090913702823FEB
:1030800029F497FF5CC01092370259C0833F19F4AE
:103090001916CCF354C0893F41F4809139021816B7
:1030A0000CF04DC0109239024AC08A3F29F4809139
:1030B000390287FF44C0F6CF8B3F39F480913A0242
:1030C00087FF3DC010923A023AC08C3F29F48091AC
:1030D0003A021816BCF333C0843F21F480913602C3
:1030E0008E7F17C0853F21F4809136028D7F11C0FD
:1030F000863F21F4809136028B7F0BC0873F21F4FD
:1031000080913602877F05C0883F31F48091360276
:103110008F7E8093360213C08D3F21F4809134025C
:103120008E7F0BC08E3F21F4809134028D7F05C0CD
:103130008F3F29F4809134028B7F809334028091F9
:10314000370281110EC08091380281110AC080912E
:103150003902811106C080913A02811102C0109299
:103160003502089586E392E00E94E9090E94AD16B7
:10317000909333028093320208951F93CF93DF938D
:1031800080913202909133020E94B916409135022B
:10319000442321F020914C0130E006C020914D01E4
:1031A0005AE0259F900111248217930708F46AC002
:1031B0008091370210913802D0913902C0913A02C1
:1031C000811107C0111105C0D11103C0CC2309F42E
:1031D00059C04F3F19F04F5F40933502181624F441
:1031E0000E944417809337028091370287FF05C001
:1031F0000E944417819580933702111624F40E948F
:103200004417809338028091380287FF05C00E94DE
:10321000441781958093380220913702222379F058
:1032200040913802442359F055EB250390011124B5
:10323000309337024503C0011124909338021D16C4
:1032400024F40E948C17809339028091390287FF01
:1032500005C00E948C178195809339021C1624F4B6
:103260000E948C1780933A0280913A0287FF05C032
:103270000E948C17819580933A02DF91CF911F9124
:103280000C94B218DF91CF911F910895E6E3F2E01C
:1032900085E0DF011D928A95E9F7109235021092C0
:1032A00034020895833081F128F4813059F082305E
:1032B000D1F00895853009F449C0B8F1863009F499
:1032C00056C0089520914D01862F90E0820F911DE8
:1032D0008F3F910520F4620F60934D0108958FEFA9
:1032E00080934D01089520914C01862F90E0820F2C
:1032F000911D8F3F910520F4620F60934C0108955A
:103300008FEF80934C01089520914B01862F90E020
:10331000820F911D8F3F910520F4620F60934B0146
:1033200008958FEF80934B01089520914A01862FD5
:1033300090E0820F911D8F3F910520F4620F609302
:103340004A0108958FEF80934A0108952091490121
:10335000862F90E0820F911D8F3F910520F4620F20
:103360006093490108958FEF80934901089520915A
:103370004801862F90E0820F911D8F3F910520F428
:10338000620F6093480108958FEF8093480108957C
:10339000833011F128F4813049F0823091F00895A2
:1033A000853081F120F18630C1F1089580914D0181
:1033B000681720F4861B80934D01089510924D01EB
:1033C000089580914C01681720F4861B80934C016E
:1033D000089510924C01089580914B01681720F4D4
:1033E000861B80934B01089510924B0108958091A4
:1033F0004A01681720F4861B80934A0108951092B1
:103400004A01089580914901681720F4861B809332
:103410004901089510924901089580914801681763
:1034200020F4861B80934801089510924801089566
:10343000873220F58E3108F098C0803109F474C0CD
:1034400070F4873009F44CC018F4863089F12EC02E
:103450008B3009F4A0C08E3009F45CC027C08631DF
:1034600009F499C020F4813109F46FC01FC089317B
:1034700009F491C08B3109F443C018C0883309F4B2
:103480008AC050F4893209F47EC0853309F47BC0C8
:10349000873209F478C00AC0833409F474C020F478
:1034A0008A3308F060C002C0883461F080E008957B
:1034B00080913002817F8E7F8093300281E0809303
:1034C0003C0208950E94880F2FEF83ED90E3215076
:1034D00080409040E1F700C000000E9408175BC0E8
:1034E00090913002892F8095817080FB90F99093A4
:1034F0003002811150C0997F977F909330024BC06A
:103500009091300291FB882780F921E0822780FB8F
:1035100091F913C09091300292FB882780F921E045
:10352000822780FB92F909C09091300293FB882793
:1035300080F921E0822780FB93F990933002882361
:1035400051F191609093300208950E94880F9091FC
:10355000660297FB882780F921E0822780FB97F994
:103560009093660218C027EC01C023EE280F61E09B
:1035700070E080E090E004C0660F771F881F991FFD
:103580002A95D2F704C061E070E080E090E00E94EC
:103590008F130E94880F81E0089580E0089580E0F5
:1035A00008958E518A3030F4E82FF0E0E359FE4F51
:1035B0008081089580E00895CF93C82F80913C02C8
:1035C000813069F018F08230B1F180C0E09146019D
:1035D000F09147018081823209F07AC007C0E09102
:1035E0004601F09147018081823249F48C2F0E947C
:1035F000CD1A81111DC08C2F0E94181A1AC08C2F51
:103600000E94CF1A811114C0C43179F048F4CB3034
:1036100079F0C03109F060C082E080933C0208C0BC
:10362000C93219F0C83321F057C010923C0254C07F
:1036300081E0817053C0C93289F118F5C43171F14C
:10364000B0F4C73009F046C08EE180934D0182E3AB
:1036500080934C018AE080934B0184E180934A017E
:1036600088E08093490188E28093480133C082EE6C
:103670008C0F863078F58C2F0E94D11A80933B02F4
:1036800029C0CE34E9F020F4CB3421F56AE013C030
:10369000C13579F0C235F1F461E00DC080913B0293
:1036A000882319F010923B0215C081E080933C0200
:1036B00015C061E006C080913B020E9452190AC009
:1036C0006AE080913B020E94C81904C010923C023B
:1036D00080E004C081E002C080E0ABCFCF910895CC
:1036E0000E948215811102C00E9463150E949E15DE
:1036F00080936802282F269530E02530310524F08C
:1037000081708860809368028091680280FF02C0A7
:10371000869501C080E00C947B0420916802322FD2
:103720003695832F90E0049744F491E0930F990F1E
:10373000822F8170892B809368028091680281605A
:10374000809368020E94A2158091680286950C946D
:103750007B0480916802982F969591F09158990F6B
:103760008170892B809368028E7F91E009F490E04C
:103770008091680290FB80F9809368020E94A215F4
:103780008091680286950C947B0480916802982F42
:10379000909590FB80F9809368020E94A215809119
:1037A000680280FF02C0869501C080E00C947B0413
:1037B00030916802232F26952F5F2F77822F90E07C
:1037C000317005972CF4220F232B2093680202C03E
:1037D00030936802809168028E7F91E009F490E056
:1037E0008091680290FB80F9809368020E94A21584
:1037F0008091680286950C947B0420916802922F38
:1038000096959827990F822F8170892B8093680253
:103810008E7F91E009F490E08091680290FB80F93E
:10382000809368020E94A2158091680286950C948C
:103830007B0480915D0208950F931F93CF93DF93D4
:1038400000D01F92CDB7DEB78C010E94881E823057
:1038500011F0843019F583E089831B830A838093F8
:10386000E9008FEF9091E800815095FD06C095ED3D
:103870009A95F1F700008111F5CF8091E80085FF5E
:103880000DC040E050E063E070E0CE0101960E9480
:10389000A51E8091E8008E778093E8000F900F902E
:1038A0000F90DF91CF911F910F910895CF93DF93E8
:1038B00000D01F92CDB7DEB720916D02243031F5D4
:1038C00022E02983805891099B838A8383E0809337
:1038D000E9008FEF9091E800815095FD06C095EDCD
:1038E0009A95F1F700008111F5CF8091E80085FFEE
:1038F0000DC040E050E063E070E0CE0101960E9410
:10390000A51E8091E8008E778093E8000F900F90BD
:103910000F90DF91CF910895CF93DF93EC010E9438
:10392000881E823011F08430F9F482E08093E9003F
:103930008FEF9091E800815095FD06C095ED9A9526
:10394000F1F700008111F5CF8091E80085FF0CC0F0
:1039500040E050E065E070E0CE010E94A51E80913D
:10396000E8008E778093E800DF91CF910895CF93A0
:10397000DF93EC010E94881E823019F0843009F038
:1039800047C0809158018823E1F08091660287FF4B
:1039900018C084E08093E9008FEF9091E800815097
:1039A00095FD06C095E19A95F1F700008111F5CFDC
:1039B0008091E80085FF2CC040E050E060E270E0BC
:1039C00017C081E08093E9008FEF9091E80081506B
:1039D00095FD06C095ED9A95F1F700008111F5CFA0
:1039E0008091E80085FF14C040E050E068E070E09E
:1039F000CE010E94A51E8091E8008E778093E8009A
:103A000080E2FE01ADE3B2E001900D928A95E1F70C
:103A1000DF91CF91089580916C02811109C00E94BD
:103A200037200E9494208091E20084608093E2001D
:103A3000089510926C020895089508950C947316D9
:103A400042E061EC81E00E94B11F42E061EC82E063
:103A50000E94B11F42E061EC83E00E94B11F42E28C
:103A600061EC84E00C94B11F80916F02833009F403
:103A700055C030F4813071F0823009F48EC0089561
:103A80008A3009F47AC08B3009F460C0893009F0BB
:103A90009CC020C080916E02813A09F096C080914E
:103AA000E800877F8093E800809172029091730212
:103AB000892B21F060E080E090E003C060E28DE3BC
:103AC00092E070E00E94EE1E8091E8008B77809378
:103AD000E800089580916E02813209F076C08091ED
:103AE000720290917302009719F0039709F06DC06C
:103AF0008091E800877F8093E8008091E80082FD54
:103B000005C080916D028111F8CF5FC08091F100F6
:103B100080935D028091E8008B7753C080916E02A4
:103B2000813A09F052C08091720290917302892B00
:103B300009F04BC08091E800877F8093E800809176
:103B4000E80080FFFCCF8091580136C080916E0262
:103B50008132D9F58091720290917302892BA9F577
:103B60008091E800877F8093E8000E94E61F8091A3
:103B70007002809358010C94880F80916E028132FC
:103B800021F58091E800877F8093E8000E94E61F7E
:103B90008091710280935E02089580916E02813A55
:103BA000A1F48091E800877F8093E8008091E8008D
:103BB00080FFFCCF80915E028093F1008091E8004D
:103BC0008E778093E8000C94E61F089584B7877F72
:103BD00084BF88E10FB6F894809360001092600073
:103BE0000FBE80E880936100109261000E94210A5C
:103BF0000E9437200E9494208091E200846080938C
:103C0000E20078940E9417230E94250A8EE491E036
:103C10000E94CD0980916D02853069F40E943016B2
:103C200080916B028823B1F30E945E16882391F382
:103C30000E948F1EEFCF0E942D0AECCF292F332731
:103C400023303105A9F06CF42130310509F442C06C
:103C50002230310509F043C08DE690E026E932E0DC
:103C600042C021323105C9F02232310519F137C085
:103C700099278130910541F08230910541F0892BDF
:103C800071F5E2E9F2E005C0E6E8F2E002C0E6E73D
:103C9000F2E0849190E09F0126C064307105F8F451
:103CA000FB01EE0FFF1FED57FE4F2081318189E0B0
:103CB00090E019C06430710590F4FB01EE0FFF1F16
:103CC000E558FE4F20813181FB01E958FE4F80818C
:103CD00090E009C082E190E023E033E004C080E09E
:103CE00090E020E030E0FA013183208308950895C8
:103CF000CF93C82F0E94771EC0935F02CF91089583
:103D000080916D02843011F482E0089581E008957D
:103D100080915F02811102C00C94801E089580E1A1
:103D200089BD82E189BD09B400FEFDCF8091D80034
:103D30008F7D8093D8008091E00082608093E000C6
:103D40008091E00081FDFCCF0895CF92DF92EF9249
:103D5000FF920F931F93CF93DF937C018B01EA01B6
:103D60000E940720811131C0209731F0888199810C
:103D7000081B190BE80EF91EC12CD12C01151105D9
:103D800019F18091E80085FD14C08091E8008E77DC
:103D90008093E800209741F0888199818C0D9D1DCA
:103DA0009983888385E011C00E940720882331F31E
:103DB0000CC0F70181917F018093F100015011093E
:103DC000FFEFCF1ADF0ADACF80E0DF91CF911F91AA
:103DD0000F91FF90EF90DF90CF90089520917402A3
:103DE000309175022617370748F06115710539F4CF
:103DF0002091E8002E772093E80001C0B901FC0172
:103E000020E061157105B9F180916D02882309F4F4
:103E100040C0853009F43FC08091E80083FD3DC07B
:103E20008091E80082FF06C08091E80082FF26C0F2
:103E300080E008958091E80080FFE3CF2091F300B7
:103E40008091F20090E0922B6115710551F088305D
:103E5000910538F421912093F10061507109019688
:103E6000F3CF21E0089709F020E08091E8008E77F9
:103E70008093E800C6CF2111C7CFD6CF80916D02C5
:103E8000882339F0853039F08091E80083FFCCCF6A
:103E900004C082E0089583E0089581E008952091B0
:103EA0007402309175022617370748F061157105C5
:103EB00039F42091E8002E772093E80001C0B90181
:103EC000FC0120E061157105C1F180916D0288232C
:103ED00009F441C0853009F440C08091E80083FDB9
:103EE0003EC08091E80082FF06C08091E80082FF1A
:103EF00027C080E008958091E80080FFE3CF209103
:103F0000F3008091F20090E0922B6115710559F059
:103F10008830910540F424912093F100319661504E
:103F200071090196F2CF21E0089709F020E0809115
:103F3000E8008E778093E800C5CF2111C6CFD5CF9A
:103F400080916D02882339F0853039F08091E80046
:103F500083FFCBCF04C082E0089583E0089581E021
:103F60000895982F973058F59093E900981739F0F5
:103F70007091EC002091ED005091F00003C0242FCF
:103F8000762F50E021FF19C03091EB003E7F309337
:103F9000EB003091ED003D7F3093ED003091EB0070
:103FA00031603093EB007093EC002093ED00509360
:103FB000F0002091EE0027FF07C09F5FD3CF8F70E6
:103FC0008093E90081E0089580E0089580916E0279
:103FD00087FD05C08091E80080FF0EC012C080916F
:103FE000E80082FD05C080916D028111F8CF08952F
:103FF0008091E8008B7708C080916D028111EACF33
:1040000008958091E8008E778093E800089580916C
:10401000E4009091E50045E62091EC0020FF21C0EE
:104020002091E80020FD21C020916D02222389F01B
:10403000253089F02091EB0025FD0FC02091E40090
:104040003091E5002817390739F3415041F0C90193
:10405000E3CF82E0089583E0089581E0089584E04D
:1040600008952091E80022FFDFCF80E008950E94AC
:10407000A5200E94AD20E0EEF0E080818160808389
:10408000E8EDF0E080818F77808319BCA7EDB0E088
:104090008C918E7F8C9380818F7E808310926C02B6
:1040A00008950F931F93CF93DF930E94A5200E9442
:1040B000AD20C8EDD0E088818F77888388818068C3
:1040C000888388818F7D888319BC10926D0210923D
:1040D000690210926B0210926A0200EE10E0F80181
:1040E00080818B7F808388818160888342E060E06B
:1040F00080E00E94B11FE1EEF0E080818E7F80833E
:10410000E2EEF0E08081816080838081886080833E
:10411000F80180818E7F8083888180618883DF9130
:10412000CF911F910F910895E8EDF0E080818F7E8F
:104130008083E7EDF0E080818160808384E082BF4E
:1041400081E080936C020C945120E8EDF0E08081D6
:104150008E7F80831092E20008951092DA00109210
:10416000E10008951F920F920FB60F9211242F9322
:104170003F934F935F936F937F938F939F93AF93EF
:10418000BF93EF93FF938091E10082FF0BC080917A
:10419000E20082FF07C08091E1008B7F8093E10005
:1041A0000E9416238091DA0080FF1FC08091D80002
:1041B00080FF1BC08091DA008E7F8093DA008091AF
:1041C000D90080FF0DC080E189BD82E189BD09B4BD
:1041D00000FEFDCF81E080936D020E940B1D05C0A3
:1041E00019BC10926D020E94191D8091E10080FFA0
:1041F00019C08091E20080FF15C08091E2008E7F9F
:104200008093E2008091E20080618093E2008091DF
:10421000D80080628093D80019BC85E080936D023D
:104220000E941D1D8091E10084FF30C08091E2005A
:1042300084FF2CC080E189BD82E189BD09B400FE04
:10424000FDCF8091D8008F7D8093D8008091E100D0
:104250008F7E8093E1008091E2008F7E8093E20068
:104260008091E20081608093E2008091690288235E
:1042700011F084E007C08091E30087FF02C083E073
:1042800001C081E080936D020E941E1D8091E100BB
:1042900083FF29C08091E20083FF25C08091E10067
:1042A000877F8093E10082E080936D021092690223
:1042B0008091E1008E7F8093E1008091E2008E7F0B
:1042C0008093E2008091E20080618093E20042E00E
:1042D00060E080E00E94B11F8091F00088608093D0
:1042E000F0000E941C1DFF91EF91BF91AF919F9133
:1042F0008F917F916F915F914F913F912F910F908F
:104300000FBE0F901F9018951F920F920FB60F922D
:1043100011242F933F934F935F936F937F938F93CA
:104320009F93AF93BF93CF93EF93FF93C091E90017
:10433000CF708091EC001092E9008091F000877FAF
:104340008093F00078940E94C0211092E90080913F
:10435000F00088608093F000C093E900FF91EF9136
:10436000CF91BF91AF919F918F917F916F915F910D
:104370004F913F912F910F900FBE0F901F90189566
:104380001F93CF93DF93CDB7DEB7AA970FB6F894FC
:10439000DEBF0FBECDBFEEE6F2E08091F10081936B
:1043A00022E0E637F207C9F70E94341D8091E80049
:1043B00083FF24C120916E0230916F02832F90E021
:1043C0008A30910508F01AC1FC01E556FF4F0C94A4
:1043D0004823203821F0223809F010C108C080910C
:1043E0006A0290916B02992389F082600FC08091DC
:1043F00072028F70873008F001C18093E9008091CC
:10440000EB0085FB882780F91092E9009091E80085
:10441000977F9093E8008093F1001092F100CCC058
:10442000822F8D7F09F0EAC0222319F0223061F03B
:10443000E5C080917002813009F0E0C0333009F0AE
:1044400080E080936B022AC080917002811126C0A7
:10445000209172022F708FEF820F863008F0CEC04D
:104460002093E9008091EB0080FF18C08091EB0061
:10447000333011F4806210C080618093EB0081E0E2
:1044800090E001C0880F2A95EAF78093EA00109225
:10449000EA008091EB0088608093EB001092E900C5
:1044A0008091E800877F8093E8000E94E61FA6C005
:1044B0002111A4C0109170021F778091E3008078D1
:1044C000812B8093E3008091E800877F8093E80050
:1044D0000E94E61F8091E80080FFFCCF8091E300FE
:1044E00080688093E300112311F083E001C082E033
:1044F00080936D0283C02058223008F07FC08091E5
:104500007002909171028C3D23E0920779F583E06F
:104510008A838AE289834FB7F894DE01139620E0FC
:104520003EE051E2E32FF0E050935700E49120FF8A
:1045300003C0E295EF703F5FEF708E2F90E0EA309E
:1045400010F0C79601C0C0968D939D932F5F2431C4
:1045500049F74FBF8091E800877F8093E8006AE2C7
:1045600070E0CE0101960E94EE1E15C060917202AD
:1045700070917302AE014F5F5F4F0E941E1E009745
:10458000E9F12091E800277F2093E800BC018981B0
:104590009A810E944F1F8091E8008B778093E800FA
:1045A0002DC0203859F58091E800877F8093E8007E
:1045B000809169028093F1008091E8008E7773CF3B
:1045C00021111CC0909170029230C0F48091E800DB
:1045D000877F8093E800909369020E94E61F809194
:1045E0006902811104C08091E30087FF02C084E06A
:1045F00001C081E080936D020E94201D8091E8003F
:1046000083FF0AC08091E800877F8093E800809153
:10461000EB0080628093EB00AA960FB6F894DEBFA1
:104620000FBECDBFDF91CF911F9108950895CF9315
:1046300080916D028823B1F08091E9008F70909194
:10464000EC0090FF02C090E801C090E0C92FC82B99
:104650001092E9008091E80083FD0E94C021CF7094
:10466000C093E900CF91089597FB072E16F40094AC
:1046700007D077FD09D00E944E2307FC05D03EF4F9
:10468000909581959F4F0895709561957F4F0895FE
:10469000EE0FFF1F0590F491E02D0994AA1BBB1BA0
:1046A00051E107C0AA1FBB1FA617B70710F0A61B32
:1046B000B70B881F991F5A95A9F780959095BC0153
:1046C000CD010895F999FECF92BD81BDF89A992741
:1046D00080B50895A8E1B0E042E050E00C948A2350
:1046E000262FF999FECF92BD81BDF89A019700B4AB
:1046F000021639F01FBA20BD0FB6F894FA9AF99A4B
:104700000FBE08950196272F0E9471230C947023E9
:10471000DC01CB01FC01F999FECF06C0F2BDE1BD81
:10472000F89A319600B40D9241505040B8F7089570
:04473000F894FFCF2B
:104734000000A508B508000000000000000000000B
:104744000041010000A508B50800000000000000B9
:10475400000000003D010000A508B50800000000AD
:10476400000000000000003901380031000D003065
:104774000209002F02FF0D022808140A321E191C18
:10478400B71C8C1C561C1C1C01F0F1C667663794C0
:1047940031303534979633F49091F6F7950102034E
:1047A40004050607080900404D3639D10384034E39
:0C47B400031503A802C102DA02F30200A0
:00000001FF
